:060000000A128A110C280F
:10000800FE00030EF2000A08F3000A128A11B62D48
:100018000A128A110F280A128A11DA260A128A117C
:10002800D20083133B30840052300A128A11CC2646
:100038000A128A11F601F701F801F90183010A127F
:100048008A114E2B333083120313A4000030A5000D
:100058005108AD00AE012D08A6002E08A7000A120F
:100068008A11C9230A128A11831203132408AF00C4
:100078002F08CE003330A4000030A5005108AD0091
:10008800AE012D08A0002E08A1006430A2000030A7
:10009800A3000A128A11E9250A128A11831203138E
:1000A8002108A7002008A6000A128A11C9230A12EB
:1000B8008A11831203132408AF002508B0004E08E4
:1000C800B100B2013108A0003208A1009C30A200A2
:1000D800FF30A3000A128A11E9250A128A11831235
:1000E800031320082F07B50021080318210A300739
:1000F800B6000A30A4000030A5003608A70035086D
:10010800A6000A128A11C9230A128A11831203133C
:100118002408AD002D08CB003330A4000030A50022
:100128005108AD00AE012D08A0002E08A1006430D2
:10013800A2000030A3000A128A11E9250A128A11C6
:10014800831203132108A7002008A6000A128A11A7
:10015800C9230A128A11831203132408AF00250841
:10016800B0009C30B1003108F4004E080A128A1120
:1001780089260A128A1183120313B200F630B300DB
:100188003308F4004B080A128A1189260A128A11C8
:100198008312031332072F07B4003408C8004E082F
:1001A8000A128A1101250A128A1183120313AD005B
:1001B8002D08C5004B080A128A1101250A128A1156
:1001C80083120313AD002D08C20048080A128A11D1
:1001D80001250A128A1183120313AD002D08BF00EE
:1001E8000800333083120313A4000030A5007908F7
:1001F800AD00AE012D08A6002E08A7000A128A112C
:10020800C9230A128A11831203132408AF002F0886
:10021800F8003330A4000030A5007908AD00AE0125
:100228002D08A0002E08A1000A30A2000030A3006B
:100238000A128A11E9250A128A1183120313210866
:10024800A7002008A6000A128A11C9230A128A11D7
:10025800831203132408AF002508B000F630B1005C
:100268003108F40078080A128A1189260A128A11BC
:10027800831203132F07B2003208CC003330A400D6
:100288000030A5007908AD00AE012D08A0002E08A9
:10029800A1006430A2000030A3000A128A11E925E7
:1002A8000A128A11831203132108A7002008A60046
:1002B8000A128A11C9230A128A1183120313240805
:1002C800AF002508B0009C30B1003108F400780870
:1002D8000A128A1189260A128A1183120313B2009C
:1002E800F630B3003308F4004C080A128A11892644
:1002F8000A128A118312031332072F07B400340835
:10030800C90078080A128A1101250A128A11831273
:100318000313AD002D08C6004C080A128A110125E6
:100328000A128A1183120313AD002D08C30049086D
:100338000A128A1101250A128A1183120313AD00C9
:100348002D08C0000800F500B5291F179F13102AB3
:100358001F139F17102A1F179F17102A1F139F1369
:10036800102A750883120313A000A1012108003A7E
:100378000319BF29B2292008013A0319A929033A08
:100388000319AC29013A0319AF29B2291F119F118A
:100398001F129F12412A1F159F111F129F12412AD7
:1003A8001F119F151F129F12412A1F159F151F12FB
:1003B8009F12412A1F119F111F169F12412A1F15B4
:1003C8009F111F169F12412A1F119F151F169F125A
:1003D800412A1F159F151F169F12412A1F119F1191
:1003E8001F129F16412A1F159F111F129F16412A7F
:1003F8001F119F151F129F16412A1F159F151F12A7
:100408009F16412A1F119F111F169F16412A1F155B
:100418009F111F169F16412A7408A000A1012108E8
:10042800003A0319182ACA292008013A0319CF29C2
:10043800033A0319D429013A0319D929073A0319A8
:10044800DE29013A0319E329033A0319E829013A95
:100458000319ED290F3A0319F229013A0319F7296B
:10046800033A0319FC29013A0319012A073A031927
:10047800062A013A03190B2ACA299F101F1483164A
:1004880003139F0108000130F0007008F707770395
:10049800031D4F2A502A542A831203134608990031
:1004A80002307706031D592A5A2A5E2A2E308312F3
:1004B8000313990003307706031D632A642A682A08
:1004C800831203134308990004307706031D6D2A2D
:1004D8006E2A722A831203134008990005307706A2
:1004E800031D772A782A7C2A763083120313990011
:1004F80006307706031D812A822A862A2C30831229
:100508000313990007307706031D8B2A8C2A902A3B
:10051800203083120313990008307706031D952AAB
:10052800962A9A2A831203134508990009307706F8
:10053800031D9F2AA02AA42A2E3083120313990090
:100548000A307706031DA92AAA2AAE2A83120313A2
:10055800420899000B307706031DB32AB42AB82A3B
:10056800831203133F0899000C307706031DBD2A38
:10057800BE2AC22A76308312031399000D307706FB
:10058800031DC72AC82ACD2A0D30831203139900E8
:10059800F7010800643083120313A4000030A5009B
:1005A8003B08AD00AE012D08A6002E08A7000A12D0
:1005B8008A11C9230A128A11831203132408AF006F
:1005C8002F08CD000A30A4000030A5004D08AD006A
:1005D800AE012D08A0002E08A1009C30A200FF301B
:1005E800A3000A128A11E9250A128A118312031339
:1005F8003B082007A60021080318210AA7000A12B1
:100608008A11C9230A128A11831203132408AF001E
:100618002F08CA009C30AD002D08F4004D080A12BE
:100628008A1189260A128A1183120313AE00F63042
:10063800AF002F08F4004A080A128A1189260A1204
:100648008A11831203132E073B07B0003008C70036
:100658004D080A128A1101250A128A1183120313FE
:10066800AD002D08C4004A080A128A1101250A1291
:100678008A1183120313AD002D08C10047080A121E
:100688008A1101250A128A1183120313AD002D085D
:10069800BE0008000A128A1142250A128A110A129B
:1006A8008A11A0260A128A110A128A1170260A12C1
:1006B8008A1183120313A201A20A01300A128A11B5
:1006C80010260A128A11013083120313B2008030F7
:1006D800B3000A128A1132240A128A1183120313F0
:1006E800A201A20A02300A128A1110260A128A11DD
:1006F800831203134108B9003908F4003E08BA0010
:100708003A08F50044080A128A1178240A128A1154
:1007180083120313B2000030B3000A128A11322484
:100728000A128A110A128A11BD240A128A110D307E
:1007380076060319A02BA12BB12B2B3076060319B3
:10074800A62BA72BB12B2D3076060319AC2BAD2B7E
:10075800B12B83120313BD01BC010A128A117F2534
:100768000A128A110A128A11F5200A128A110A122B
:100778008A1126200A128A110A128A11CE220A1216
:100788008A115D2B0A128A110C2883120313AA01FD
:10079800A51FCF2BD02BD72BA409A509A40A031971
:1007A800A50AAA01AA0AA71FDA2BDB2BE42BA609A4
:1007B800A709A60A0319A70A0130A8002808AA064B
:1007C800AB01AC01240825040319EB2BEC2B232CDB
:1007D800A901A90AFA2B01300310A40DA50DFF3EAB
:1007E800031DF02B0130A8002808A907A51FFD2B21
:1007F800FE2BEF2B01300310AB0DAC0DFF3E031D9C
:10080800FF2B25082702031D0B2C24082602031C96
:100818000E2C0F2C162C2408A6022508031CA7034F
:10082800A7022B1401300310A50CA40CFF3E031DD6
:10083800172C0130A902031D222C232CFE2B2A0879
:100848000319272C282C2D2CAB09AC09AB0A03194A
:10085800AC0A2C08A5002B08A40008008312031377
:10086800B701B8015B2C37083207B5003308B4006C
:100878000318B40AB71F412CB403831203133408B6
:10088800B6003608FF00350884000A128A11362699
:100898000A128A110A128A11B6260A128A1101301E
:1008A80083120313B7070318B80A0030B8073708CC
:1008B8003207B5003308B4000318B40AB71F652C13
:1008C800B403831203133408B6003608FF00350852
:1008D80084000A128A1136260A128A11003A031D68
:1008E800762C772C372C080083120313A1004608B6
:1008F800A0002008A2002E30A0002008A300430872
:10090800A0002008A4004008A0002008A500763018
:10091800A0002008A6002030A0002008A700450855
:10092800A0002008A8002E30A0002008A900420836
:10093800A0002008AA003F08A0002008AB007630DD
:10094800A0002008AC002030A0002008AD0021083D
:10095800A0002008AE002E30A0002008AF007408C8
:10096800A0002008B0007508A0002008B1002230BF
:1009780008000630831203135002031CC42CC52C34
:10098800002DD0019F145208031DCB2CCC2CE82C31
:100998001430A2002208F40001300A128A11A7219B
:1009A8000A128A11831203134F08A2002208F900C1
:1009B800203083120313A200A20BE02C0000831244
:1009C8000313D201D20A002DF401F40A01300A12ED
:1009D8008A11A7210A128A11831203134F08A20051
:1009E8002208D100203083120313A200A20BFA2C94
:1009F800000083120313D201080083120313A0001E
:100A0800192D3030412D3130412D3230412D3330C8
:100A1800412D3430412D3530412D3630412D373080
:100A2800412D3830412D3930412D2008F400F50191
:100A38007508003A0319212D052D7408003A031989
:100A4800052D013A0319072D033A0319092D013A17
:100A580003190B2D073A03190D2D013A03190F2D10
:100A6800033A0319112D013A0319132D0F3A0319EB
:100A7800152D013A0319172D052D080083160317A4
:100A88008801890103308800033083160313850029
:100A9800860180308700880189018312031385014C
:100AA80086018701880189010B110B108B170B1721
:100AB8008B168B110C13831603130F128F160F1737
:100AC800143083120313A2002208F40014300A120F
:100AD8008A11A7210A128A11831603139F01EC3089
:100AE80083120313810057308316031381000C17F8
:100AF8008C160C1608002B307606031D842D852DC8
:100B0800892D83120313BD01BD0A0D307606031D1E
:100B18008E2D8F2D9B2D831203133D03031D952DC1
:100B2800962D9B2DBD010130F4007408BB072D30B4
:100B38007606031DA02DA12DA52D83120313BC013C
:100B4800BC0A0D307606031DAA2DAB2DB52D8312D8
:100B580003133C03031DB12DB22DB52DBC0101308B
:100B6800BB0208000B1DB92DBA2DC32D0B11EC309B
:100B78008312031381000130F1007108D00783123A
:100B880003130C1FC82DC92DCE2D0C131E08F10000
:100B98007108CF008C1ED12DD22DD62D1A08F10048
:100BA8007108F6000C1ED92DDA2DE22D0A128A11D1
:100BB80047220A128A11831603130C1273088A003B
:100BC800720E8300FE0E7E0E0900F401F5018312F9
:100BD8000313201CF02DF12DF72D2208F40703181C
:100BE800F50A2308F50701300310A20DA30DFF3EF7
:100BF800031DF82D01300310A10CA00CFF3E031DAE
:100C0800FF2D20082104031D0A2E0B2EEB2D75083D
:100C1800A1007408A000080083120313A400240391
:100C2800031D172E182E242E22087F3EA30023080A
:100C3800A50025080A128A1155260A128A11352E8E
:100C480002302406031D292E2A2E352E2208BF3EE7
:100C5800A3002308A50025080A128A1155260A129E
:100C68008A110800FF1B402E83137F188317000882
:100C7800840A0319FF0A080006308A000408840A57
:100C88008207003453343134203420342034203463
:100C98005334323420342034203420345334333421
:100CA8000034F50075080A128A11D4260A128A112E
:100CB80083120313891009110914073083120313CF
:100CC800A1007C30A000A00B672EA10B672E0000AE
:100CD800831203130910080038300A128A115526A6
:100CE8000A128A1106300A128A1155260A128A1126
:100CF8000C300A128A1155260A128A1180300A12FB
:100D08008A1155260A128A11080083120313A100BA
:100D1800A001211C902E912E952E7408F5007508BF
:100D2800A0070310F40D0310A10C2108031D9D2E2C
:100D38009E2E8D2E200808008316031318121815EE
:100D48001813831603178711831603139A01193092
:100D58009900831203139817181318168316031390
:100D68009816080083120313A00020080A128A119B
:100D7800D4260A128A11831203138914091109143B
:100D88000D30F500F50BC62E831203130910080069
:100D980064008001840A0406031900340406CD2E79
:0E0DA800F4007408831203138800080001345D
:04400E00D420FF3F7C
:00000001FF
